:020000040800F2
:10000000001A0020893F0008012B0008933F0008D8
:10001000032B0008072B00080B2B00080000000032
:100020000000000000000000000000000F2B00088E
:10003000112B0008000000009F3F0008E12B000882
:10004000A33F0008A33F0008A33F0008A33F000808
:10005000A33F0008A33F0008A33F0008A33F0008F8
:10006000A33F0008A33F0008A33F0008A33F0008E8
:10007000A33F0008A33F0008A33F0008A33F0008D8
:10008000A33F0008A33F0008A33F0008A33F0008C8
:10009000A33F0008A33F0008A33F0008132B00085C
:1000A000A33F0008A33F0008A33F0008A33F0008A8
:1000B000A33F0008252B00082D2B0008A33F0008B4
:1000C000A33F0008A33F0008A33F0008A33F000888
:1000D000A33F0008492B0008512B0008592B0008AA
:1000E000A33F0008A33F0008A33F0008A33F000868
:1000F000A33F0008A33F0008A33F0008A33F000858
:10010000A33F0008A33F0008A33F0008A33F000847
:10011000612B0008692B0008A33F00082F2B000863
:10012000A33F0008A33F0008A33F0008A33F000827
:10013000A33F0008A33F0008A33F0008A33F000817
:10014000A33F0008A33F0008A33F0008A33F000807
:10015000A33F0008A33F0008A33F0008712B00083D
:10016000A33F0008A33F0008A33F0008A33F0008E7
:10017000A33F0008A33F0008A33F0008A33F0008D7
:10018000A33F0008A33F0008DFF80CD00CF018F9DB
:1001900000480047A1010008001A002000BFFEE748
:1001A00001F09EFA00F011F801E000F034F8FCE7ED
:1001B000704710B501F06CFA10BD7047704710B56C
:1001C00000F052F810BD70477047002000BF1FE0DC
:1001D00000EB4001234A02EB810189884FF47A72D7
:1001E00092FBF1F100EB40021E4B03EB8202D18047
:1001F00000EB40011A4602EB8101C988012905DAAA
:10020000012100EB400203EB8202D180411CC8B205
:100210000728DDD3704770B5002400BF1EE002F050
:10022000E9FC054604EB44000E4901EB80008068C0
:10023000281A04EB44010B4A02EB8101C988884269
:100240000AD304EB4400114601EB8000856004EB07
:10025000440152F821008047601CC4B2072CDED351
:1002600070BD00000000002010B57C4890F83800F8
:10027000002871D17948B0F9440040F21451884205
:100280000FDD7648B0F9440040F2A461884208DAF4
:100290007348007840B9642000F0E3FF70490870AB
:1002A00002E000206E4908706C48B0F94400B0F5D7
:1002B000487F0DDD6948B0F94400B0F5966F07DA64
:1002C0006848007838B900F0EDFF6649087002E030
:1002D0000020644908706148B0F9440040F2A4610C
:1002E00088420FDD5D48B0F9440040F6980188422D
:1002F00008DA5D48007840B901205B4908705B4925
:10030000087002E00020584908705748007801281A
:1003100075D1564800780F2872D2DFE800F0080C3B
:10032000151E323B505B727D929596979800002087
:100330004F4908808DE0032000F052FF4B490978B7
:1003400008444A49087084E000F012FF47490978E0
:100350000844464908707CE07FE045480088B0F5D5
:10036000FA6F05DA4248008814304149088007E0F6
:1003700000203F4908803D480078401C3B490870F8
:1003800067E0642000F06DFF384909780844374978
:1003900008705EE03648008842F21071884205DA43
:1003A0003348008814303249088007E00020304983
:1003B00008802E480078401C2C49087049E0002233
:1003C0009621642000F087FF2849097808442749CE
:1003D00008703EE02648008842F21071884205DA33
:1003E0002348008814302249088007E00020204973
:1003F00008801E480078401C1C49087029E029E04C
:1004000026E05A229621642000F065FF17490978FA
:100410000844164908701CE01548008842F2107123
:10042000884205DA1248008814301149088007E034
:1004300000200F4908800D480078401C0B490870C7
:1004400007E000F02FFF04E003E002E001E000E03D
:1004500000BF02E000200549087010BD5A090020C5
:1004600054000020550000205600002057000020B6
:1004700058000020FF20FB4981F84E006421F94814
:10048000A0F850100121A0F85210FF20F54981F882
:1004900080011421F348A0F882110021A0F88411F2
:1004A000FF20F04981F820010021EE48A0F8221138
:1004B000A0F82411FF20EB4981F832010021E9481E
:1004C000A0F83411A0F83611FF20E64981F8380170
:1004D0000021E448A0F83A11A0F83C11FF20E149BE
:1004E00081F886010021DF48A0F88811A0F88A1160
:1004F000FF20DC4981F840050021DA48A0F84215C8
:10050000A0F84415FF20D74981F84C050021D548B3
:10051000A0F84E15A0F85015704770B504460D466A
:100520002946204603F094FC70BDCE4A107001228B
:10053000CC4B5A707047CB4A82F84C05012382F8A5
:100540004D3570472DE9F04104460D460026002741
:10055000E178A81F814201D0BDE8F081002006E0CB
:10056000215C3144CEB2B919CFB2411CC8B2A91E28
:100570008142F5DC601910F8020CB04204D1601918
:1005800010F8010CB84200D0E6E72078AA2805D17F
:100590006078612803D06078FF2800D0DCE7A0787D
:1005A000202811D1A088B0490880E088488020899F
:1005B00088806089C880A0890881E0894881208A74
:1005C0008881608AC88184E0A0780F280DD12079C5
:1005D00040B2A6490870607940B24870A07940B234
:1005E0008870E07940B2C87073E0A07806280CD11A
:1005F00020799F4948706079C870A0790871E179C5
:100600009B484171217A817163E0A078072860D00E
:10061000A078E0281ED12079012806D0022805D034
:10062000102804D0112804D102E003E002E001E028
:1006300000E000BF00BF20798A4981F80C06084617
:1006400080F80D6680F80E7600F20C61AF20FFF79F
:100650006CFF3EE0A078B0B9824890F80F0621798F
:10066000884236D17F4890F810066179884230D1AF
:100670007C4890F81106A17988422AD10020794956
:1006800081F8000625E0A078E12811D12179607970
:1006900001EB00201FFA80F87248A0F814860021B0
:1006A000C0F8181600F21461FF20FFF744FF10E0B5
:1006B000A078E2280DD120796A4981F80C06084615
:1006C00080F80D6680F80E7600F20C61FF20FFF7CF
:1006D0002CFF00BF40E710B504466648007838B9E3
:1006E000AA2C05D10120634908706348047072E0A8
:1006F00060480078012809D1612C01D0FF2C05D178
:1007000002205C4908705C48447064E059480078F5
:10071000022805D1032057490870574884705AE0D1
:100720005448007803280CD1FA2C0ADA04205149E5
:1007300008705148C4705148047000205049087036
:1007400049E04C480078042819D14C48007800282A
:1007500015DD4A480078401E48490870484800782E
:1007600047490978491C464A1170001D42490C54FA
:100770004248007858BB05203E4908702BE03D48B0
:10078000007805280DD106203A4908703C480078C9
:100790003B490978491C3A4A1170001D36490C54EE
:1007A00019E034480078062812D100203149087039
:1007B00033480078001D30490C5431480078401D02
:1007C00030490870084601782B48FFF7BBFE02E06D
:1007D00000202849087010BD7CB50346342B64D036
:1007E00007DC7BB10D2B23D0302B2ED0332B77D1D0
:1007F0004EE0402B67D0412B75D0E02B72D0E22B1E
:10080000F5D191E0174890F80C460D78681C0870F7
:100810005455144890F80D460D78681C08705455CE
:10082000104890F80E460D78681C08705455AAE0E0
:10083000002007E0144C255C0E78741C0C70955554
:10084000441CE0B20428F5DB9DE0002007E00F4CDB
:10085000255C0E78741C0C709555441CE0B217286A
:10086000F5DB90E0D4010020FE08002058010020B4
:100870004E0900205E000020F00700205C000020F0
:100880005D0000205A000020600000203709002091
:10089000002007E0BC4C255C0E78741C0C7095554C
:1008A000441CE0B20628F5DB6DE0002008E0B64C01
:1008B0001234255C0E78741C0C709555441CE0B203
:1008C0000728F4DB5FE0002007E0B04C255C0E78E1
:1008D000741C0C709555441CE0B21428F5DB52E0F2
:1008E00050E000E00CE0002007E0A94C255C0E7809
:1008F000741C0C709555441CE0B20E28F5DB42E0E8
:10090000A44890F801460D78681C087054550020E2
:1009100007E0A14C255C0E78741C0C709555441CA6
:10092000E0B20A28F5DB2EE09A48B0F8140600B2CF
:1009300001909DF804400D78681C087054559DF88E
:1009400005400D78681C087054559248D0F8180678
:1009500000909DF800400D78681C087054559DF873
:1009600001400D78681C087054559DF802400D78C0
:10097000681C087054559DF803400D78681C087079
:10098000545500E000BF00BF7CBDF8B504460F46DB
:1009900000200090AA219DF80020501CC0B20090B9
:1009A0007E48815439789DF80020501CC0B20090D8
:1009B0007A4881549DF80010481CC0B200907748D6
:1009C000445400219DF80020501CC0B20090734890
:1009D0008154024669462046FFF7FEFE9DF800005E
:1009E000001F6E49C87000250026002007E06B49F3
:1009F000095C2944CDB27119CEB2411CC8B29DF830
:100A000000108842F3DB9DF80010481CC0B2009033
:100A1000624845549DF80010481CC0B200905F48E1
:100A200046545C4890F8000640B1E02C06D1594885
:100A300080F80F4680F8105680F811669DF8001077
:100A40005648FFF76AFDF8BD10B5044604EB4400B4
:100A5000504901EB4000408828B304EB440001EB0F
:100A60004000808804EB44014A4A02EB4101498876
:100A700088420CDA04EB4400114601EB4000808808
:100A8000401C04EB440102EB410188800BE0012093
:100A900004EB44013F4A02EB4101888004EB44012E
:100AA00002EB4101487004EB44003A4901EB40007D
:100AB000407868B1002004EB4401364A02EB410162
:100AC000487004EB440002EB40012046FFF75DFF55
:100AD00010BD304A82F84005012382F841350122D9
:100AE0002C4B83F80026704710B52DED028BB0EE2D
:100AF000408A00F01BF83020FFF7A6FF3320FFF7F5
:100B0000A3FF3420FFF7A0FF4020FFF79DFF412007
:100B1000FFF79AFFE020FFF797FFE220FFF794FF2F
:100B20000D20FFF791FFBDEC028B10BD194890F826
:100B30000006012821D11A480078322805DA184821
:100B40000078401C164908701CE000201449087009
:100B500014480078401C134908700846007805289E
:100B600004DA01210B4880F841150BE000200D4903
:100B70000870084981F8000604E000200849087060
:100B800008490870704700001E09002094090020E1
:100B9000F0080020D4010020D6070020A00100208A
:100BA0005F0000205B00002000B52DED028B85B0BA
:100BB000B0EE408AF74890F8380000287CD1F5481C
:100BC00090F839000028F9D1F248B0F94200B0F5A8
:100BD000966F06DA012000F003FB0120EE49087051
:100BE00013E0EC48B0F9420040F2A461884206DA12
:100BF000022000F0F5FA0220E749087005E0032022
:100C000000F0EEFA0320E4490870E3484078E24936
:100C1000097888420BD0E0480078DF4948700846E0
:100C20000078032803D108468078401C8870DA4891
:100C3000807810B3D9480088B0F5FA6F10DAD74839
:100C4000008800EE100AB8EE400ADFEDD50A00EE8B
:100C5000880ABCEEC00A10EE100AD04908800CE0E9
:100C6000CD498978032901DB00F0E2FA20B10021A7
:100C7000CA4A1180C84A917000BFC648B0F93A000C
:100C8000A0F2DC5000EE900AF8EEE00AB0EE600A46
:100C90009FEDC41ADFEDC40A01F084F98DED010A5D
:100CA000BC48B0F93C00A0F2DC5000EE900AF8EE2F
:100CB000E00AB0EE600A00E085E09FEDBA1ADFEDD1
:100CC000BA0A01F06FF98DED020AB248B0F93E00A0
:100CD000A0F2DC5000EE900AF8EEE00AB0EE600AF6
:100CE0009FEDB21ADFEDB00A01F05CF98DED030A59
:100CF000A848B0F94000A0F2DC5000EE900AF8EEEF
:100D0000E00AB0EE600A9FEDA91ADFEDA70A01F034
:100D100049F98DED040AA648007858B19FEDA20A62
:100D20008DED010A9FEDA00A8DED020A9FED9E0A4E
:100D30008DED040A9848007802283ADA9DED010A00
:100D4000DFED9C0A20EE200ADFED9B0A20EE200A50
:100D5000BDEEC00A10EE100A00B2984908809DED61
:100D6000020AB1EE400ADFED930A20EE200ADFED21
:100D7000920A20EE200ABDEEC00A10EE100A00B260
:100D800048808448C08FA0F57A7000B288809DEDBD
:100D9000040AB1EE400ADFED8A0A20EE200ADFEDF8
:100DA000890A20EE200ABDEEC00A10EE100A00B239
:100DB000C8800121844880F8871100208349087089
:100DC000834908701EE08348C07878B17F48007876
:100DD00028B9032000F004FA7C49087006E07C483A
:100DE000007818B900F024FA794908700020734996
:100DF000088048804FF4AF7088800020C8808881C8
:100E00004881088105B0BDEC028B00BD10B50446D9
:100E10007148008800EE100AB8EE400ADFED6F0A54
:100E200020EE200ABDEEC00A10EE100A00B26C4996
:100E300008806948408800EE100AB8EE400ADFEDED
:100E4000670A20EE200ABDEEC00A10EE100A00B2BA
:100E500048806148808800EE100AB8EE400ADFED55
:100E60005F0A20EE200ABDEEC00A10EE100A00B2A2
:100E700088805948C08800EE100AB8EE400ADFEDBD
:100E8000570A20EE200ABDEEC00A10EE100A00B28A
:100E9000C8805148008900EE100AB8EE400ADFED24
:100EA0004F0A20EE200ABDEEC00A10EE100A00B272
:100EB00008814948408900EE100AB8EE400ADFED8B
:100EC000470A20EE200ABDEEC00A10EE100A00B25A
:100ED00048814148808900EE100AB8EE400ADFEDF3
:100EE0003F0A20EE200ABDEEC00A10EE100A00B242
:100EF00088813948C08900EE100AB8EE400ADFED5B
:100F0000370A20EE200ABDEEC00A10EE100A00B229
:100F1000C8813448007818B901203249087027E0A8
:100F2000E4B1002017E02E4931F91010002901DC4E
:100F300000210BE02A4931F91010B1F57A7F02DD6A
:100F40004FF47A7102E0264931F91010244A22F850
:100F50001010411CC8B20828E5DB09E0002005E0BC
:100F600000211F4A22F81010411CC8B20828F7DBE4
:100F70001B4802F054F910BD10B501F00DFFDFED74
:100F80001A0A20EE200ABCEEC00A10EE100A174919
:100F9000088010BD5A090020660000206A00002069
:100FA00000007A4400002042000000000000A0423F
:100FB000780000208F360E3B00C05A45F008002014
:100FC000C6F91B3B00004843D40100206400002008
:100FD000650000204E090020FE080020CDCCCC3D4D
:100FE0000E0900206C0000200000C84260000020B4
:100FF00010B523480088401C214908800846008815
:101000000A2190FBF1F201FB12001D4908800846FD
:10101000008810BB9FED1B0A00F02BFD9FED190A05
:10102000FFF7C2FD9FED170A00F016FB9FED150AB2
:1010300001F0F2F912484088401C114948800846E6
:1010400040880A2190FBF1F201FB12000C49488014
:101050000846408808B9FFF78FFF02F078FF0120AB
:1010600001F07AFB9FED080A00F010F89FED060AE8
:10107000FFF73AFD0120FFF7C9FE01F02EFF10BD7A
:101080006E0000200AD7233C6F12833A10B52DED75
:10109000028BB0EE408A00F020F800BF2D48407867
:1010A0002D490978884214D02A4840782A49087086
:1010B00000202A4988744FF487712848A0F813103B
:1010C0002448C1692548C0F815100121244880F83A
:1010D000391100BFBDEC028B10BD22480078FF28FB
:1010E00004D020480078401C1E4908701948007838
:1010F0001D490978884216D0164800781A490870A8
:101100001448007A50B11348C07838B1114840896A
:10111000124908800F488089488004E04FF400405D
:101120000E49088048800B48407810490978884269
:101130000ED0084840780D4908704FF40040074928
:1011400088800121064880F8331100200549087085
:1011500070470000C8090020750000201E0900200B
:10116000D4010020740000207200002073000020D1
:1011700010B50120A2498870A24890F8000688B9ED
:101180001020A04981F8010600219E4880F802162F
:10119000012180F8031600F20161FF20FFF799FC9E
:1011A000012010BD0020FCE710B500209449887094
:1011B000944890F8000688B91020924981F80106F9
:1011C0000021904880F80216022180F8031600F2F0
:1011D0000161FF20FFF77DFC012010BD0020FCE72E
:1011E00010B5044688480078A0421FD0854890F882
:1011F0000006C8B982480470834804700120814900
:1012000081F8010601217F4880F8021680F8031654
:101210007B4801787B4880F8041600F20161FF20CA
:10122000FFF757FC012010BD0020FCE70120FAE782
:1012300010B5744890F8000688B91020714981F8FB
:10124000010600216F4880F80216072180F8031676
:1012500000F20161FF20FFF73CFC012010BD0020DF
:10126000FCE701B5674890F80006C8B91020654949
:1012700081F801060021634880F80216052180F8F4
:1012800003169DF8001080F804169DF8011080F8F0
:10129000051600F20161FF20FFF71BFC012008BDCD
:1012A0000020FCE710B5574890F8000688B91020D8
:1012B000544981F801060021524880F8021606219F
:1012C00080F8031600F20161FF20FFF702FC012005
:1012D00010BD0020FCE707B54A4890F8000648BB5F
:1012E0001020484981F801060221464880F802167C
:1012F000032180F803169DF8001080F804169DF86D
:10130000011080F805169DF8041080F806169DF867
:10131000051080F807169DF8081080F808169DF84B
:10132000091080F8091600F20161FF20FFF7D1FBD8
:1013300001200EBD0020FCE710B5324890F80006F1
:1013400088B901202F4981F8010600212D4880F835
:101350000216032180F8031600F20161FF20FFF757
:10136000B8FB012010BD0020FCE710B5254890F81F
:10137000000688B90120234981F80106002121488F
:1013800080F80216042180F8031600F20161FF20A4
:10139000FFF79FFB012010BD0020FCE710B51948A6
:1013A00090F8000688B90120164981F8010600214D
:1013B000144880F80216052180F8031600F2016136
:1013C000FF20FFF786FB012010BD0020FCE710B5D1
:1013D0000C4890F8000688B901200A4981F80106F6
:1013E0000021084880F80216022180F8031600F256
:1013F0000161FF20FFF76DFB012010BD0020FCE71D
:101400004E090020D40100207600002010B50446CB
:101410009848B0F94000B0F5AF6F0BDD9548B0F9D2
:101420004000B0F5C86F05DA012093494870934930
:10143000087002E00020904948708E48B0F93E00E4
:10144000B0F5966F06DA8C48407818B901208A49C1
:10145000087002E000208849087088480078012858
:101460004AD18748C078002853D18248B0F93A0061
:1014700040F26C71884210DD7E48B0F93C0040F2C9
:101480004C41884209DA7B48B0F93E00884204DAD0
:101490007848B0F94000884217DB7648B0F9400040
:1014A00040F26C71884230DD7248B0F93C0040F285
:1014B0004C41884229DA6F48B0F93E00884224DA6C
:1014C0006C48B0F93A0088421FDA6E480088B0F5DF
:1014D0007A7F12DAD4ED000A6A48008800EE100A1A
:1014E000B8EE400A9FED681A00EE810ABCEEC00A11
:1014F00010EE100A6349088062E0FFF739FE002011
:10150000604908805D4908705AE000205D49088004
:1015100056E05B48C078012852D15648B0F93A00ED
:1015200040F26C71884210DD5248B0F93C0040F244
:101530004C41884209DA4F48B0F93E00884204DA4B
:101540004C48B0F94000884217DB4A48B0F94000E7
:1015500040F26C71884230DD4648B0F93C0040F200
:101560004C41884229DA4348B0F93E00884224DAE7
:101570004048B0F93A0088421FDA42480088B0F586
:10158000967F12DAD4ED000A3E48008800EE100A79
:10159000B8EE400A9FED3C1A00EE810ABCEEC00A8C
:1015A00010EE100A374908800AE0FFF7FDFD002021
:1015B000344908803149087002E000203149088030
:1015C00010BD10B52E48C078002844D12948B0F984
:1015D000400040F24C41884217DA2648B0F93C00FE
:1015E000884212DA2348B0F93E0088420DDA2148D9
:1015F000B0F93A00884208DA2448007838BBFFF78F
:101600009BFE01202149087025E01A48B0F94000EE
:1016100040F26C7188421BDD1648B0F93C0040F284
:101620004C41884214DA1348B0F93E0088420FDA80
:101630001048B0F93A0040F26C71884208DD134856
:10164000007820B9FFF791FE01201049087002E0F0
:1016500000200E49087010BD10B52DED020B054895
:1016600090F8380020B96846FFF7D0FEFFF7A9FFD1
:101670001CBD00005A090020780000207C000020DA
:101680004E0900207A00002000007A447D000020EE
:1016900010B50D48B0F94C0040F2A46188420CDD51
:1016A0000948B0F94C0040F63401884205DA4FF49D
:1016B0004871064807F002FD04E040F24651034835
:1016C00007F0FCFC10BD00005A090020000C00408F
:1016D00010B501F0EFFD0120F74981F8380010BD89
:1016E00010B501F0C1FA642001F0B2FA01F094FBE8
:1016F00001F020FC642001F0ABFAF04802F00DF894
:10170000EE4802F004F9ED4802F029FAEB4802F045
:101710000FFB642001F09CFAFFF7DAFF01F0E8FA12
:10172000642001F095FAFEF7A5FE4FF4487001F031
:101730008FFA01F0B6F801F0E7FE012010BD40F687
:10174000C411884203DDDE490978032903DCDC4942
:1017500009780A290DD10021D94A1170D649B1F86A
:101760004E10491CD44AA2F84E10012182F85010A4
:1017700012E0B0F5967F0FDD40F6B83188420BDA03
:1017800002B2CD49891CCE4B1B7821F81320CC49DD
:101790000978491CCA4A1170704738B50446C9A077
:1017A00000680090C8484068C749086001F025FA01
:1017B000C5494860084640680968401A40F6C411A7
:1017C000884202D90020C1490870C04801780078D9
:1017D000401CBE4A1070BE48445410460078192878
:1017E0007ED1182011460870B94800780F2878D1AA
:1017F000B748007E38B1B648007EB64A12781DF868
:1018000002108842F3D10020B0490870B0484078F7
:10181000AF49897801F0070140EA0120A649888292
:10182000AB48C0788006400DA949897840EAE100BC
:10183000A149C882A6484079C007400DA44909794A
:1018400040EA8100A249C97840EAA1109A49088378
:101850009F4880790007400D9D49497940EA610021
:10186000954948839A48C0794006400D984989793E
:1018700040EA2110904988839548407A8007400DBE
:101880009349097A40EA41009149C97940EAE11057
:101890008949C8838E48807AC006400D8C49497AB0
:1018A00040EAA100844908848948C07AC000884978
:1018B000897A40EA6111804841848548007B8449E7
:1018C000497B01F0070140EA01207B498884804878
:1018D000807B8006400D7E49497B40EAE10001E0C3
:1018E00072E067E07449C8847948007CC007400D05
:1018F0007749C97B40EA81007549897B40EAA1109C
:101900006D4908857248407C0007400D7049097C8C
:1019100040EA6100684948856D48807C4006400D7A
:101920006B49497C40EA2110634988856848007DFD
:101930008007400D6649C97C40EA41006449897CC2
:1019400040EAE1105C49C8856148407DC006400D11
:101950005F49097D40EAA100574908865C48807DBF
:10196000C0005B49497D40EA6111534841865848AF
:10197000C07D514981F83400084690F8340000F0E9
:10198000080040B90846B0F84E00401CA1F84E00CF
:10199000022081F850004F480078401C4D490870E3
:1019A0000878C11700EB91718910A0EB8101494AB9
:1019B000117009E0002005E0454A411C515C1154BA
:1019C000411CC8B21828F7DB38BD10B50446D4ED69
:1019D000000A4148008800EE100AB8EE400A9FED68
:1019E0003F1A00EE810ABCEEC00A10EE100A3A4916
:1019F000088008460088B0F57A7F39DD002008802D
:101A00002D48B0F84E002C49C8860846C08E0528DF
:101A100003DA012081F8380003E00020264981F82C
:101A20003800254890F83800C8B123480078D8B964
:101A30002B480078401C2A490870087800EBD071C8
:101A40004910A0EB4101264A117010460078012888
:101A500002D101F0B0FC07E001F02CFC04E01648D4
:101A600090F850001449087000201349A1F84E0066
:101A700010BD10B52DED020B6846FFF7A6FF0E480E
:101A800090F83800002872D10B48007801280DD159
:101A9000002008E00849891C31F81020383121F86D
:101AA0001020411CC8B20A28F4DB37E00248007855
:101AB000022833D100202FE05A09002020A107007E
:101AC0008000002004142434840000208C000020B6
:101AD000AC0900208D0000209000002000007A4416
:101AE0008E0000202A4931F91010A1F5806100EE26
:101AF000101AF8EEC00A9FED270A9FED271A01EE93
:101B0000200ABDEEC00A10EE101A0AB22049263192
:101B100021F81020411CC8B20A28E3DB1C48143805
:101B2000B0F94200B0F5966F06DD19481438B0F9E7
:101B30004200B0F5AF6F0DDB15481438B0F9420024
:101B4000B0F5C86F0CDD12481438B0F94200B0F59A
:101B5000E16F05DA01200E49143981F8390016E0E9
:101B600000200B49143981F8390010E0FFE701200B
:101B70000749143981F83900002006E000220449A1
:101B8000263121F81020411CC8B20A28F6DB1CBD02
:101B90006E0900200080BB442FDD243FF0EE400A98
:101BA000F5EEC00AF1EE10FA02DBB0EE600A704703
:101BB000B1EE600AFBE700B5B0EE403AB0EE602A45
:101BC000B5EEC03AF1EE10FA07D1B5EEC02AF1EE4B
:101BD00010FA02D19FEDFC1A99E0B0EE430AFFF72C
:101BE000DDFFF0EE403AB0EE420AFFF7D7FFF0EE2D
:101BF000402AF4EEE23AF1EE10FA02D283EEA24A63
:101C000001E082EEA34A9FEDF10AB4EEC04AF1EE84
:101C100010FA02D2F0EE441A2DE0DFEDED0AB6EE36
:101C2000000A14EE200AF0EE404ABDEEE40A10EE7F
:101C3000100A00EE100AB8EEC00A34EEC00AF0EE48
:101C4000404AE44901EB800191ED000AF0EE401AB0
:101C5000E04A411C02EB810191ED000A114601EBC3
:101C60008001D1ED000A70EE600AB0EE610A00EE6C
:101C7000A40AF0EE401AF4EEE32AF1EE10FA20DDA9
:101C8000B5EEC02AF1EE10FA0ADBB5EEC03AF1EE7D
:101C900010FA02DBB0EE611A39E0B1EE611A36E0FB
:101CA0009FEDCD1AB5EEC03AF1EE10FA04DB31EE3D
:101CB000610AB0EE401A2AE031EEC10AB0EE401AD5
:101CC00025E0B5EEC03AF1EE10FA10DB9FEDC31A35
:101CD000B5EEC02AF1EE10FA04DB31EE610AB0EE87
:101CE000401A14E031EE210AB0EE401A0FE09FEDE9
:101CF000BC1AB5EEC02AF1EE10FA04DB31EE210A6F
:101D0000B0EE401A03E031EE610AB0EE401AB0EED8
:101D1000410A00BD00B5B0EE405AF0EE605AF0EE58
:101D2000450AB0EE650AFFF746FF00BDF0EE400A37
:101D3000F6EE001A60EEA11AB0EE611AB0EE600A7B
:101D400010EE100AA749A1EB600000EE100A21EE88
:101D5000002AF7EE081A42EE401A61EE801AB0EE41
:101D6000610A21EE002AF7EE081A42EE401A61EEEF
:101D7000801AB0EE610A704700B5F0EE402AB0EE6E
:101D8000620AFFF7D3FF20EE220A00BD10B52DED49
:101D90000A8BB0EE409AF0EE609A9FED930B53ECF5
:101DA000102B51EC190B0AF009FA18D29FED900B89
:101DB00053EC102B51EC190B0AF07DF941EC1B0B85
:101DC0009FED8D0B53EC102B0AF0CEF841EC1A0B63
:101DD00053EC192B0AF06FF941EC180B17E09FED4B
:101DE000840B53EC102B51EC190B0AF064F941EC05
:101DF0001B0B9FED810B53EC102B0AF059F941ECB2
:101E00001A0B53EC192B0AF056F941EC180B9FED05
:101E1000760B53EC102B51EC180B0AF0CFF920D2B3
:101E20009FED770B53EC102B51EC180B0AF09CF83C
:101E300041EC1C0B9FED740B53EC102B0AF03BF99B
:101E400041EC1B0B9FED6E0B53EC102B0AF08CF842
:101E500041EC1A0B53EC182B0AF02DF941EC180B3E
:101E60001FE09FED670B53EC102B51EC180B0AF0A1
:101E70001CF941EC1C0B9FED660B53EC102B0AF088
:101E80001AF941EC1B0B9FED5E0B53EC102B0AF083
:101E90006BF841EC1A0B53EC182B0AF00CF941ECDF
:101EA000180BB0EE480AF0EE680ABDEC0A8B10BDC4
:101EB00010B52DED068BB0EE408AF0EE608A01245D
:101EC0009FED550B53EC102B51EC180B0AF08EF9CB
:101ED0000AD89FED510B53EC102B51EC180B0AF064
:101EE000E4F841EC180BA41E20460AF056F941EC28
:101EF000190BB0EE480AF0EE680AFFF747FFB0EEA4
:101F000040AAF0EE60AA53EC192B51EC1A0B0AF020
:101F1000D2F841EC100BBDEC068B10BD10B52DEDC9
:101F2000088BB0EE408AF0EE608A01249FED3C0BF6
:101F300053EC102B51EC180B0AF016F841EC180B6F
:101F40009FED350B53EC102B51EC180B0AF04EF9AA
:101F50000AD8A41E9FED300B53EC102B51EC180B3C
:101F60000AF0A3F841EC180B20460AF016F941ECF0
:101F70001A0BB0EE480AF0EE680AFFF799FFB0EED0
:101F800040BAF0EE60BA53EC1A2B51EC1B0B0AF07E
:101F900092F841EC190B0AF041F900EE100ABDEC81
:101FA000088B10BDF0EE401AF4EEE01AF1EE10FAD4
:101FB0003ADD31EEC10AB4EEE00AF1EE10FA3CD29D
:101FC000B0EE600A39E00000000000008180803B34
:101FD0000000804378C40008DB0F4940DB0FC93F95
:101FE000DB0FC9BFDF59375F0000000000000000B1
:101FF000000000602FF0D93F00000060305FF43F28
:10200000000000000000F03F000000C0CCCCCCBFBE
:10201000000000C0CCCCCC3FF1D4C853FB21094018
:10202000F1D4C853FB21F93F31EE810AB4EEE00A46
:10203000F1EE10FA01DDB0EE600A7047F0EE401AE2
:10204000B1EE412A32EE202AB4EEE12AF1EE10FA86
:1020500009D231EE202AB4EEE12AF1EE10FA02DDC7
:10206000B0EE600A01E0B0EE610A7047F0EE402A7F
:10207000B5EEC01AF1EE10FA02DDB0EE410A01E051
:10208000B1EE410AB6EE003A22EE033A23EE213ACF
:10209000B4EEC30AF1EE10FA06D29FEDD40A20EE98
:1020A000800AF0EE400A4DE0B5EEC01AF1EE10FAEB
:1020B00002DDB0EE410A01E0B1EE410A22EE213A22
:1020C000B4EEC30AF1EE10FA06D29FEDC90A20EE73
:1020D000800AF0EE400A35E0B5EEC01AF1EE10FAD3
:1020E00002DDB0EE410A01E0B1EE410AB4EEE10AD0
:1020F000F1EE10FA06D2B6EE000A20EE800AF0EEFB
:10210000400A1FE0B5EEC01AF1EE10FA02DDB0EEA3
:10211000410A01E0B1EE410AB0EE003A21EE833A05
:10212000B4EEC30AF1EE10FA06D29FEDB20A20EE29
:10213000800AF0EE400A05E09FEDAF0A20EE800A2B
:10214000F0EE400A9FEDAD0A20EE800A20EE223A22
:10215000F7EE003A83EE830AB7EE003A30EE030A58
:10216000F7EE003A83EE803A90ED000A71EE403AC5
:1021700090ED000A03EE230A80ED000A90ED000ABC
:10218000B1EE423A23EE213AB4EEC30AF1EE10FA70
:1021900004D8B1EE420A20EE210A0DE090ED000ACB
:1021A00022EE213AB4EEC30AF1EE10FA02DD22EE7D
:1021B000210A01E090ED000A80ED000A90ED000A8E
:1021C00031EE400A704710B52DED028BB0EE408A1B
:1021D000F0EE608A9FED8A0B53EC102B51EC180B3C
:1021E0000AF004F80CD29FED880B53EC102B51EC45
:1021F000180B09F05AFF41EC100BBDEC028B10BD1F
:102200009FED830B53EC102B51EC180B09F0D6FF0C
:102210000AD29FED7D0B53EC102B51EC180B09F0FB
:10222000A3FE41EC100BE8E7B0EE480AF0EE680AB6
:10223000E3E730B505460C46F0EE403AD5ED000A2E
:1022400060EEA00A94ED001AD4ED001A41EE210AC6
:10225000B0EE600AFFF790FDB0EE403AB5EEC03A3E
:10226000F1EE10FA02D81FEDA80A09E0B4EEE33A45
:10227000F1EE10FA02DDB0EE630A01E0B0EE430ABF
:10228000B0EE404AB5EEC03AF1EE10FA06D11FEDBD
:10229000B20A83ED000A82ED000A0FE084EE030A21
:1022A000D5ED000A20EE200A82ED000A84EE030A32
:1022B000D4ED000A20EE200A83ED000A30BDF0EED6
:1022C000400A0B7802EB8303C3ED000A0B785B1C1A
:1022D0000B700B78834201DB00230B700B7802EB51
:1022E000830393ED000A704700B50246B0EE403A12
:1022F0000B46F7EE000A43EE430AB0EE600AFFF722
:102300003BFDD2ED000A20EE200AD2ED010A00EEDC
:10231000C30A83ED000AF7EE000A43EE430AB0EE6B
:10232000600AFFF729FDD2ED010A20EE200AD2ED66
:10233000000A00EE830A83ED010A00BD90ED000A59
:10234000D1ED010A20EE200AD0ED010A91ED001A2C
:1023500000EEC10A704790ED000AD1ED000A20EEB0
:10236000200AD0ED010A91ED011A00EE810A7047B2
:1023700090ED010AD1ED020A20EE200AD0ED020A0A
:1023800091ED011A00EEC10A82ED000A90ED020AF9
:10239000D1ED000A20EE200AD0ED000A91ED021ADC
:1023A00000EEC10A82ED010A90ED000AD1ED010AAA
:1023B00020EE200AD0ED010A91ED001A00EEC10ACC
:1023C00082ED020A704790ED000AD1ED000A20EE7E
:1023D000200AD0ED010A91ED011A00EE810AD0ED3C
:1023E000020A91ED021A00EE810A70479A99993F0C
:1023F000CDCC4C3FCDCC4C3ECDCCCC3DC3F5C84034
:102400000000000000806640000000000080764070
:1024100000000000008066C008B5C648D0ED000A84
:102420009FEDC51AF4EEC10AF1EE10FA0BD2D0ED11
:10243000000AB7EE001A70EE810AC0ED000A012012
:10244000BE49887002E00020BC498870B948D0EDD0
:10245000010A9FEDB91AF4EEC10AF1EE10FA0BD29F
:10246000D0ED010AB7EE001A70EE810AC0ED010A44
:1024700001208DF8000002E000208DF80000AD483A
:10248000D0ED020A9FEDAC1AF4EEC10AF1EE10FA9B
:102490000BD2D0ED020AB7EE001A70EE810AC0ED41
:1024A000020A01208DF8010002E000208DF80100F1
:1024B0009DF8000030B19DF8010018B101209F493E
:1024C000C87002E000209D49C87008BD30B50022E8
:1024D0000024C5788B1F9D4200D030BD002306E04C
:1024E000C55C1544EAB2A518ECB25D1CEBB28D1EBA
:1024F0009D42F5DC431813F8023C934204D1431883
:1025000013F8013CA34200D0E7E78378512B38D180
:1025100003795BB94379894D6B7183795BB2AB7198
:10252000C3795BB2EB71037A2B7183E00379012BE2
:1025300012D14379814D2B72C3886B810389AB81A2
:10254000837A2B719FED7E0A7A4B83ED010A2B462D
:102550001B785B1C2B706DE00379022B6AD14379E9
:10256000764DAB73C3882B8203896B824389AB8220
:102570008389EB82C3892B83038A6B83837C2B71D2
:1025800058E08378342B0DD1D0F807306B4DEB61D8
:102590009FED6B0A674B83ED020A2B465B785B1C51
:1025A0006B7047E08378012B0DD18388634D2B86B8
:1025B000C3886B860389AB864389EB8683892B8727
:1025C000C3896B8736E08378042B33D1B0F90430AC
:1025D00000EE103AB8EEC00ADFED5A0A20EE200AEB
:1025E000564B83ED080AB0F9063000EE103AB8EE0B
:1025F000C00ADFED540A20EE200A504B83ED090A91
:10260000B0F9083000EE103AB8EEC00ADFED4D0A1E
:1026100020EE200A494B83ED0A0AB0F90A3000EE99
:10262000103AB8EEC00ADFED470A20EE200A434B0D
:1026300083ED0B0A00BF50E710B50446424800780E
:1026400038B9AA2C05D101203F4908703F480470D1
:102650006FE03D480078012809D1612C01D0FF2CA2
:1026600005D10220384908703848447061E0364886
:102670000078022805D1032033490870334884705C
:1026800057E03148007803280CD1FA2C0ADA0420EC
:102690002D4908702D48C4702D48047000202D4924
:1026A000087046E028480078042819D128480078A6
:1026B000002815DD26480078401E25490870254869
:1026C000007824490978491C224A1170001D1F49CD
:1026D0000C541F48007840BB05201B49087028E0B7
:1026E0001948007805280DD10620174908701948A7
:1026F000007818490978491C164A1170001D1349C1
:102700000C5416E01048007806280FD100200E491E
:10271000087010480078001D0C490C540D480078D2
:10272000401DC1B20948FFF7D1FE02E00020064972
:10273000087010BD380A00200000FA43C8090020C4
:102740000000000017B7D13894000020040A0020D0
:1027500092000020930000200146D5480078002810
:102760007ED00022D24B1A70D24A1288C832D14B86
:102770001A80D14A127DD14B5A76CF4AD37DCF4AA7
:102780009376CD4A9369CD4AC2F81B30CA4AD369C1
:10279000CA4AC2F81F30C84A526A0A2392FBF3F3AE
:1027A000C64AC2F82330C44A126B0A2392FBF3F2E2
:1027B00013B2C24AA2F82730BF4A526B0A2392FBD7
:1027C000F3F213B2BD4AA2F82930BB4A926B0A2336
:1027D00092FBF3F213B2B94AA2F82B30B64AB2F820
:1027E0004C2000EE102AB8EE400ADFEDB50A20EECC
:1027F000200ABCEEC00A10EE100A08B9002204E05C
:10280000C82801D9C82200E002461046AB4A82F827
:102810002D00A94A526C00EE102AB8EE400ADFEDF6
:10282000A80A20EE200ABCEEC00A10EE100A08B971
:10283000002204E0C82801D9C82200E00246104660
:102840009E4A82F82E009C4AD26A00EE102AB8EE08
:10285000400ADFED9B0A20EE200ABCEEC00A00E031
:1028600012E010EE100A08B9002204E0C82801D9CD
:10287000C82200E002461046904A82F82F00012349
:10288000904A82F8213100BF704710B50E218E4862
:1028900000F0C4FE10BD10B50E218C4800F0BEFE45
:1028A00010BD10B5642000F0D3F94FF4165000F0BD
:1028B0003AFE322000F0CCF91C21854800F0AEFE33
:1028C000642000F0C5F94FF4964000F02CFE322051
:1028D00000F0BEF91C217E4800F0A0FE642000F04C
:1028E000B7F94FF4164000F01EFE322000F0B0F9A8
:1028F0001C21774800F092FE642000F0A9F94FF403
:10290000E13000F010FE142000F0A2F90B21714814
:1029100000F084FE142000F09BF90B216E4800F0BB
:102920007DFE142000F094F90B216C4800F076FE37
:10293000142000F08DF90B21694800F06FFE14207F
:1029400000F086F90B21674800F068FE142000F0C3
:102950007FF90B21644800F061FE142000F078F943
:10296000FFF793FF10BD10B50146002000225F4B1A
:102970001B782BB9B52903D101235C4C237095E05A
:102980005A4B1B78012B05D1622903D10223574CE6
:1029900023708BE0554B1B78022B05D10323534C3E
:1029A0002370534B197081E0504B1B78032B05D1DA
:1029B00004234E4C23704F4B197077E04B4B1B7820
:1029C000042B05D10523494C23704B4B19706DE046
:1029D000464B1B78052B10D10623444C2370464BE5
:1029E0001B7803EB0123454C238023461B88622B75
:1029F0005CDB00233D4C237058E03C4B1B78062BDE
:102A000054DB3A4B1B789B1F3C4C2488A41CA342EC
:102A10000ADA364B1B789B1F274CE154334B1B784B
:102A20005B1C324C237041E0314B1B780344D8B21D
:102A30001318DAB22F4B1B780344D8B21318DAB24A
:102A40002E4B1B780344D8B21318DAB22B4B1B88D9
:102A500000EB1323D8B21318DAB2002307E0164CA8
:102A6000E45C0444E0B21418E2B25C1CE3B2234C10
:102A70002488A342F3DB104B204C24881B5D834247
:102A800011D10D4C1D4B1B885B1CE35C93420AD19A
:102A9000174B1B78012B06D1164B1B78072B02D145
:102AA0000123034C23700023104C237010BD000041
:102AB0009600002098000020440A00201E090020F3
:102AC0000AD7233CD40100209A000020A80000204F
:102AD000D2000020030100200E0100201901002077
:102AE000240100202F0100203A0100204B0100208A
:102AF0004501002046010020470100204801002038
:102B0000704700BFFEE700BFFEE700BFFEE770476B
:102B1000704710B5802003F0D0FE10B1802003F084
:102B200022FF10BD10B500F01DFC10BD704710B5A0
:102B30000121114807F0B7FD28B101210E4807F027
:102B40000FFEFEF755FA10BD10B500F0AFFD10BD39
:102B500010B500F0A0FE10BD10B500F0BDFF10BD17
:102B600010B501F0A9F810BD10B501F0B9F910BD0C
:102B700010B500F073FC10BD001400407FB568462E
:102B800004F0CDFD4FF47A710198B0FBF1F4E40844
:102B90002146B1F1807F00D31DE021F07F40401E2F
:102BA0004FF0E022506150170F22002807DA130778
:102BB0001E0E314B00F00F052D1F5E5503E013076D
:102BC0001D0E2E4B1D5400BF00204FF0E0229061DF
:102BD0000720106100BF6FF0040001F0A1FB7FBD72
:102BE0002748D0E900305A1C40F100002449C1E9CF
:102BF0000020704722480068704710B500BF204A87
:102C000011684FF0E02252694FF0E0239B69D21A1D
:102C10004FF47A735A434FF0E0235B69B2FBF3F24F
:102C200001EB4103C3EBC11302EBC300144C18CCFE
:102C30004B402343E3D110BD30B50446FFF7DDFF21
:102C4000054600BFFFF7D9FF401BA042FAD330BDB5
:102C500010B5044603E04FF47A70FFF7EDFF201E35
:102C6000A4F10104F7D110BD10B54FF4806001F05C
:102C7000A5FAFFF783FF10BD18ED00E000E400E0C7
:102C80005001002000B58FB0684602F0A2FD01217E
:102C9000880504F05CFE00BF564803F0B7F8002832
:102CA000FAD10090544801905448029000200390BB
:102CB00032200490002005904FF480600690400080
:102CC00007908000089000010A90401209900020AF
:102CD0000B9001200C9000200D900E906946454805
:102CE00002F021FC0121434802F084FD0FB000BD39
:102CF00000B58DB001A801F015FC0121042004F0FD
:102D000026FE0121080204F008FFFFF7BBFF0320A5
:102D10008DF8300020200B9000208DF833000BA997
:102D2000374803F0C5FE0020099007904FF480302B
:102D3000089000200A9007A801F0FEFB00200190F7
:102D40008DF8080001208DF80900002003900590FF
:102D500001208DF8180001A927484C3801F019FB13
:102D6000072301220F2124484C3801F0AAFD01213C
:102D700021484C3801F083FF01211F484C3801F0F5
:102D80008CFC01211C484C3801F053FF1A484C3888
:102D900001F063FE0DB000BD9FED1A0AF0EE400A8F
:102DA000002010E0154931F8101000EE101AB8EEAE
:102DB000401ADFED151AB0EE600A01EE210AF0EEBE
:102DC000400A411CC8B23228ECDB9FED101A80EE9D
:102DD000810A9FED0F1A20EE010AB2EE061A20EECC
:102DE000010AF7EE001A80EE211A9FED0A0A21EE81
:102DF000000A7047106402404C200140A80A0020DD
:102E000000080240000000000AD7A33C00008045F3
:102E100000404E456F12833A1CB5684603F0F3FE3E
:102E20000121102004F093FD01208DF804008DF89D
:102E3000070000208DF8060002208DF8050007200D
:102E400000906946384803F033FE01208DF80400F5
:102E50008DF8060002208DF805008020009069465C
:102E6000314803F025FE02212F4804F057F80121D4
:102E70002D4804F053F804212B4804F04FF880212A
:102E8000294804F04BF81CBD00F0010119B10221E2
:102E9000254A118302E00221234A518300F00201F6
:102EA00019B10121204A118302E001211E4A5183F8
:102EB00000F0040119B104211B4A118302E004212E
:102EC000194A518300F0080119B18021164A518333
:102ED00002E08021144A1183704700B500201DE0F4
:102EE000124931F81010124A1256914204DA0121A7
:102EF000814019438BB202E0012181408B430B4991
:102F000031F81010491C89B2084A22F8101014290F
:102F100002DB002122F81010411CC8B20428DFDBBC
:102F20001846FFF7B1FF00BD001002405C01002011
:102F30005801002030B58BB00025D54C01A803F016
:102F400062FE08A805F06FF903A805F0A8FF012CA0
:102F500001D8012004E0CF48844200D900E0204697
:102F600004460121082004F0B5FD0121022004F0EF
:102F7000D4FD0121084604F0D0FD0121152004F004
:102F8000E6FC0C20019002208DF8080003208DF84B
:102F9000090000208DF80A0001208DF80B0001A91E
:102FA000BD4803F085FD02221146BB4804F094F8A9
:102FB00002220321B84804F08FF8B848006840089E
:102FC000B0FBF4F0401E85B240F246500990A720B5
:102FD000ADF820000020ADF82800ADF8220008A9C7
:102FE000AF4805F095F86020ADF80C000020ADF872
:102FF00018000120ADF80E004FF47A60059003A987
:10300000A74805F0F3FD0821A54806F0BCF901200A
:10301000ADF80E000020059003A9A14805F0AEFE12
:1030200008219F4806F0DBF901219D4805F0F5FADB
:1030300001219B4805F0DDFB4FF4D44001900220B4
:103040008DF8080003208DF8090000208DF80A0093
:1030500001208DF80B0001A9924803F029FD0122FF
:103060000921904804F038F801220B218D4804F022
:1030700033F801220D218B4804F02EF801220E2195
:10308000884804F029F885480068B0FBF4F0401E39
:1030900085B242F210700990ADF820500020ADF8D2
:1030A0002800ADF822008DF82A0008A97E4805F016
:1030B0002FF86020ADF80C000020ADF81000ADF83E
:1030C00018000820ADF81A004001ADF81C000020DF
:1030D000ADF81E000120ADF80E004FF47A600590A7
:1030E00003A9714805F0CDFB08216F4806F0D7F819
:1030F0004FF47A60059003A96B4805F08AFC08211B
:10310000694806F00AF94FF47A60059003A9664809
:1031100005F06CFD0821644806F035F94FF47A603B
:10312000059003A9604805F029FE08215E4806F0D5
:1031300056F901215C4807F008F901215A4805F0C9
:103140006CFA0121584805F054FB4FF4407001908F
:1031500002208DF8080003208DF8090000208DF86A
:103160000A0001208DF80B0001A9504803F0A0FCD3
:10317000032208214D4803F0AFFF032209214B48E9
:1031800003F0AAFF45480068B0FBF4F0401E85B28A
:1031900042F210700990681E80B2ADF82000002045
:1031A000ADF82800ADF822008DF82A0008A94048A3
:1031B00004F0AEFF6020ADF80C000020ADF8100068
:1031C000ADF818000820ADF81A004001ADF81C0059
:1031D0000020ADF81E004FF47A60059003A9344832
:1031E00005F004FD0821304806F0CDF84FF47A6070
:1031F000059003A92E4805F0C1FD08212A4806F0D4
:10320000EEF801212A4807F0A0F80121284805F02E
:1032100004FA0121264805F0ECFA0BB030BDB0F9F4
:103220000010890001F57A611F4A1164B0F902109B
:10323000890001F57A61D163B0F90410890001F5C4
:103240007A619163B0F90610890001F57A615163E2
:10325000B0F90810890001F57A61114A4032116015
:10326000B0F90A10890001F57A61121F1160B0F9F6
:103270000C10890001F57A610D4A40321160B0F9F5
:103280000E10890001F57A61121F1160704700006D
:1032900000093D0000BD0105000002407C01002046
:1032A000000C0040001002400000014000080240F5
:1032B0000004014000B587B005A803F0A4FC02A8F3
:1032C00006F0C5FE0121022004F004FC01210420C7
:1032D00004F03DFB1D208DF8040002208DF8050050
:1032E00001208DF806008DF8070001A800F081FF8D
:1032F0008020059002208DF8180003208DF8190019
:1033000000208DF81A0002208DF81B0005A95D48E9
:1033100003F0CEFB022207215A4803F0DDFE5320C2
:10332000594908800420ADF808000A20ADF80A00C9
:103330000120ADF80C000020ADF80E00ADF8100033
:1033400002A95148283806F09CFD01214E48283832
:1033500005F04FFA012204214B48283807F064F8A1
:1033600007B000BD10B548481838008800F00400C8
:1033700000B34FF6FB704449183908804FF6FF3010
:10338000088040481030006800F0800090B93E4846
:10339000283806F008FF3D4908800846008849881B
:1033A000401A84B22046FEF7CAF9384800883749E7
:1033B000488000BF10BD00B587B0684603F023FC0D
:1033C0000121202004F0A9FB0121042004F0BFFA10
:1033D00047208DF8080004208DF8090001208DF8A1
:1033E0000A008DF80B0002A800F003FF0822072155
:1033F000244803F071FE8020009002208DF8040024
:103400008DF8050001208DF8060000208DF80700DA
:1034100069461C4803F04CFB1D4803900020ADF8A2
:1034200010004FF40050ADF81200C010ADF81400B9
:103430000020ADF818000420ADF8160003A91548C7
:1034400007F0E5FE012240F22551124808F07BFB0F
:103450000121104808F024F807B000BD10B540F273
:1034600025510C4808F095FC58B140F22551094807
:1034700008F01AFD0748001D0088C4B22046FEF778
:103480008CF910BD000802402804004064010020AF
:10349000A0860100001401403EB504460121202011
:1034A00004F018FB1E4804F057FD01945320ADF8BA
:1034B00000000020ADF80800ADF802006946184889
:1034C00004F026FE0121164807F0B7F80122114644
:1034D000134806F0A9FF0121114805F08AF90021DF
:1034E000202004F0F7FA3EBD08B537208DF8000023
:1034F00007208DF8010001208DF802008DF80300EF
:10350000684600F076FE08BD10B54FF47A70FFF7FC
:10351000C3FFFFF7E9FF0121202004F0DBFA10BD13
:1035200000140040704710B58AB0044606A807F0A2
:1035300052FF0121102004F0F0FA0121084604F0A6
:1035400006FA25208DF80C0003208DF80D000020D0
:103550008DF80E0001208DF80F0003A800F049FE41
:1035600007220921FE4803F0B7FD07220A21FC4883
:1035700003F0B2FD4FF40070019002208DF80800B6
:103580008DF8090000208DF80A0001208DF80B004D
:1035900001A9F34803F08CFA4FF4806001900220F7
:1035A0008DF808008DF8090001208DF80A00002030
:1035B0008DF80B0001A9EA4803F07AFAE94807F010
:1035C000C1FD06940020ADF81C00ADF81E00ADF85A
:1035D0002000ADF824000C20ADF822000020ADF84A
:1035E0001000ADF812004FF40070ADF81400002088
:1035F000ADF8160006A9DB4807F009FE04A9D94872
:1036000007F0F5FE012240F22551D64808F09BFA5A
:103610000121D44807F044FF0AB010BD70B505463B
:103620000E4600240AE0295DCF4802780078401C4D
:10363000CD4B1870CD488154601CC4B2B442F2DB4B
:10364000C848808900F0800028B9012240F2277123
:10365000C44808F078FA70BDC5490A780978491C51
:10366000C34B1970C349885419460978642902DB91
:1036700000211A461170704710B510E0BE490A7853
:103680000978491CBC4B1970BA49885CFFF76BF983
:10369000B9480078642802DB0020B7490870B448B4
:1036A0000078B54909788842E8D110BD10B5AD4819
:1036B000008800F0080010B1AA488088C4B240F227
:1036C0002551A84808F065FB50B140F22551A548A6
:1036D00008F0EAFBA3488088C4B22046FFF7BCFF8D
:1036E00040F227719F4808F054FBA8B1A348017825
:1036F0000078401CA14A10709C48405C9949888021
:103700001046007898490978884205D19548808903
:1037100020F080009349888110BD10B58AB004461E
:1037200006A807F058FE0121480404F0D3F901214E
:10373000082004F00CF926208DF80C0004208DF8E8
:103740000D0001208DF80E008DF80F0003A800F089
:1037500050FD072205218A4803F0BEFC07220621FE
:10376000874803F0B9FC2020019002208DF8080062
:103770008DF8090000208DF80A0001208DF80B005B
:1037800001A97F4803F094F94020019002208DF8B0
:1037900008008DF8090001208DF80A0000208DF83E
:1037A0000B0001A9764803F083F906940020ADF8D8
:1037B0001C00ADF81E00ADF82000ADF824000C2070
:1037C000ADF822000020ADF81000ADF812004FF463
:1037D0000070ADF814000020ADF8160006A9694885
:1037E00007F015FD04A9674807F001FE012240F229
:1037F0002551644808F0A7F90121624807F050FEFE
:103800000AB010BD70B505460E4600240AE0295DD9
:103810005D4802780078401C5B4B18705B4881540F
:10382000601CC4B2B442F2DB56480C30008800F091
:10383000800028B9012240F22771524808F083F92C
:1038400070BD53490A780978491C514B1970514988
:10385000885419460978642902DB00211A46117040
:10386000704700B510E04C490A780978491C4A4B6A
:1038700019704849885CFFF755FE4748007864286E
:1038800002DB002044490870414800784249097829
:103890008842E8D100BD10B53A48008800F0080021
:1038A00018B13848001D0088C4B240F2255135488F
:1038B00008F06FFA58B140F22551324808F0F4FA96
:1038C0003048001D0088C4B22046FFF7BAFF40F21E
:1038D00027712C4808F05DFAC0B1304801780078B3
:1038E000401C2E4A10702948405C2649091D08805A
:1038F0001046007824490978884207D121480C30C5
:10390000008820F080001F490C31088010BD10B5E0
:103910008AB0044606A807F05EFD0121880404F081
:10392000D9F80121022004F012F827208DF80C00AC
:1039300002208DF80D0000208DF80E0001208DF87A
:103940000F0003A800F055FC07220A21144803F0D9
:10395000C3FB07220B21124803F0BEFB22E000004C
:103960000000024000100140690100200C0B002003
:103970006A0100200C0C00206B010020680100206F
:10398000000C0240004400406D010020700C00203B
:103990006E010020700D00206F0100206C010020DE
:1039A000000402404FF48060019002208DF808006E
:1039B0008DF8090000208DF80A0001208DF80B0019
:1039C00001A9FE4803F074F84FF400600190022052
:1039D0008DF808008DF8090001208DF80A000020FC
:1039E0008DF80B0001A9F54803F062F80694002059
:1039F000ADF81C00ADF81E00ADF82000ADF82400B5
:103A00000C20ADF822000020ADF81000ADF8120037
:103A10004FF40070ADF814000020ADF8160006A9B0
:103A2000E74807F0F4FB04A9E54807F0E0FC0122B1
:103A300040F22551E24808F086F80121E04807F0FD
:103A40002FFD0AB010BD70B505460E4600240AE0F1
:103A5000295DDC4802780078401CDA4B1870DA489F
:103A60008154601CC4B2B442F2DBD5480C300088EB
:103A700000F0800028B9012240F22771D04808F0F8
:103A800062F870BDD1490A780978491CCF4B19708A
:103A9000CF49885419460978642902DB00211A4667
:103AA0001170704700B510E0CA490A780978491CBE
:103AB000C84B1970C649885CFFF734FDC5480078CB
:103AC000642802DB0020C3490870C0480078C1495F
:103AD00009788842E8D100BD10B5B948008800F0E7
:103AE000080018B1B648001D0088C4B22046FFF790
:103AF000C9FF40F22551B24808F04BF978B140F2C5
:103B00002551AF4808F0D0F9AD48001D0088C4B277
:103B10002046FFF7B7FF2146A94807F083FD40F292
:103B20002771A74808F035F9C0B1AB480178007893
:103B3000401CA94A1070A448405CA149091D088096
:103B4000104600789F490978884207D19C480C307C
:103B5000008820F080009A490C31088010BD10B513
:103B600088B0044604A807F036FC0121C80403F01D
:103B7000B1FF0121084603F0EAFE34208DF80C0065
:103B800003208DF80D0001208DF80E008DF80F0038
:103B900003A800F02EFB08220021904803F09CFAB5
:103BA000082201218D4803F097FA0120019002209C
:103BB0008DF808008DF8090000208DF80A0001201A
:103BC0008DF80B0001A9854802F072FF02200190D8
:103BD0008DF808008DF8090001208DF80A000020FA
:103BE0008DF80B0001A97D4802F062FF04940020CB
:103BF000ADF81400ADF81600ADF81800ADF81C00D3
:103C00000C20ADF81A0004A9754807F000FB01224A
:103C100040F22551724807F096FF0121704807F0E5
:103C20003FFC08B010BD70B505460E4600240AE002
:103C3000295D6C4802780078401C6A4B18706A480D
:103C40008154601CC4B2B442F2DB65480C30008879
:103C500000F0800028B9012240F22771604807F087
:103C600072FF70BD61490A780978491C5F4B197071
:103C70005F49885419460978642902DB00211A46F5
:103C80001170704710B510E05A490A780978491C3C
:103C9000584B19705649885CFEF7CEFC55480078A1
:103CA000642802DB002053490870504800785149CD
:103CB00009788842E8D110BD10B54948008800F065
:103CC000080018B14648001D0088C4B240F22551D2
:103CD000434808F05EF858B140F22551404808F0DA
:103CE000E3F83F48001D0088C4B22046FFF7BAFF42
:103CF00040F227713A4808F04CF8C0B13E480178CC
:103D00000078401C3C4A10703748405C3449091D1B
:103D100008801046007833490978884207D1304836
:103D20000C30008820F080002D490C31088010BD37
:103D300010B588B0044604A807F04DFB0121080522
:103D400003F0C8FE0121042003F001FE0121082038
:103D500003F0FDFD35208DF80C0001208DF80D00DD
:103D600000208DF80E0001208DF80F0003A800F050
:103D700040FA08220C21214803F0AEF90822022162
:103D80001F4803F0A9F94FF48050019002208DF8EC
:103D900008008DF8090000208DF80A0001208DF838
:103DA0000B0001A9154802F083FE042001900220B7
:103DB0008DF808008DF80900012023E0000402407E
:103DC0000048004071010020D40D00207201002045
:103DD000D40E00207301002070010020000002407A
:103DE000004C004075010020380F002076010020B3
:103DF00038100020770100207401002000080240E4
:103E0000000C02408DF80A0000208DF80B0001A97B
:103E1000554802F04DFE04940020ADF81400ADF8B2
:103E20001600ADF81800ADF81C000C20ADF81A0013
:103E300004A94E4807F0EBF9012240F225514B4806
:103E400007F081FE0121494807F02AFB08B010BDA8
:103E500070B505460E4600240AE0295D4448027804
:103E60000078401C424B187042488154601CC4B218
:103E7000B442F2DB3D48808900F0800028B901227D
:103E800040F22771394807F05EFE70BD3A490A7862
:103E90000978491C384B19703849885419460978F3
:103EA000642902DB00211A461170704710B510E03A
:103EB00033490A780978491C314B19702F49885CBD
:103EC000FCF709FC2E480078642802DB00202C490E
:103ED0000870294800782A4909788842E8D110BD3D
:103EE00010B52248008800F0080010B11F488088F3
:103EF000C4B240F225511D4807F04BFF50B140F2CB
:103F000025511A4807F0D0FF18488088C4B22046CF
:103F1000FFF7BCFF40F22771144807F03AFFA8B141
:103F2000184801780078401C164A10701148405C0F
:103F30000E498880104600780D490978884205D1DD
:103F40000A48808920F080000849888110BD10B59A
:103F5000FFF792FBFFF785FCFFF7A4FDFFF792FE4A
:103F6000FFF7A4FF10BD0000000C0240005000400D
:103F7000790100209C1000207A0100209C11002073
:103F80007B01002078010020064880470648004752
:103F9000FEE7FEE7FEE7FEE7FEE7FEE7FEE7FEE7F9
:103FA000FEE7FEE789400008890100080CB5002003
:103FB000019000907648006840F4803074490860B1
:103FC00000BF7348006800F4003000900198401C66
:103FD0000190009818B90198B0F5A06FF1D16C4824
:103FE000006800F4003010B10120009001E00020D2
:103FF00000900098012846D165484030006840F0A4
:1040000080506349403108606248006840F4804055
:10401000604908605E48083000685D490831086002
:104020000846006840F4004008600846006840F414
:10403000A05008605848091F0860081F006840F039
:104040008070091F086000BF5148006800F00070D0
:104050000028F9D040F20560504908604C4808300B
:10406000006820F003004A490831086008460068EB
:1040700040F00200086000BF45480830006800F0CA
:104080000C000828F8D10CBD10B54548006840F474
:104090007000434908603E48006840F001003C4918
:1040A000086000203A4908310860394800683D49F5
:1040B0000840374908603C48091D0860081F00682F
:1040C00020F48020091F0860002031490C3108606D
:1040D000FFF76CFF4FF0006031498039086010BD78
:1040E00070B500200022022300240221284D08354B
:1040F0002D6805F00C0020B1042806D0082834D122
:1041000007E02A4D2A4E356033E02A4D284E3560AF
:104110002FE01F4D2D1D2D68C5F380541C4D2D1D06
:104120002D6805F03F0154B1224DB5FBF1F5184E55
:10413000361D3668C6F3881605FB06F209E01B4DEE
:10414000B5FBF1F5124E361D3668C6F3881605FB31
:1041500006F20F4D2D1D2D68C5F301456D1C6B003A
:10416000B2FBF3F5124E356003E0104D104E356092
:1041700000BF00BF064D08352D68C5F303150E4E70
:10418000705D0B4D2D68C540094E356070BD000057
:10419000003802400070004008544007003C0240D4
:1041A00088ED00E0FFFFF6FE103000240024F4004C
:1041B0007C01002000127A008001002010B5044626
:1041C000B4F5E06F0BD0B4F5C06F08D0B4F5A06FB4
:1041D00005D0B4F5806F02D0B4F5407F00D103E084
:1041E00073215F48FBF7DAFF5E4820435E490860B1
:1041F00010BD2DE9F0410446002500270F26E07888
:1042000010B1E078012800D103E087215448FBF782
:10421000C5FF6078102800DA03E088215048FBF7DA
:10422000BDFFA078102800DA03E089214C48FBF795
:10423000B5FFE07818B34C48006800F4E060C0F5C2
:10424000E060C0F30725C5F10400C7B22E416078D5
:10425000B840C5B2A078304005432807050E434852
:1042600021784554207800F01F01012088402178F2
:104270004911890001F1E021C1F8000109E020782D
:1042800000F01F010120884039492278521141F87D
:104290002200BDE8F08170B504460D46B4F1005F20
:1042A00002D0B4F1006F00D103E0B1212C48FBF73C
:1042B00075FF3048854200D203E0B2212848FBF761
:1042C0006DFF2D4905EA010020432749091F0860B9
:1042D00070BD70B504460D46102C03D0042C01D0DF
:1042E000022C00D103E0C4211D48FBF757FF0DB19C
:1042F000012D00D103E0C5211948FBF74FFF3DB167
:104300001948001D006820431749091D086006E090
:104310001548001D0068A0431349091D086070BDC1
:1043200010B50446042C01D0601D00B903E0DC2167
:104330000B48FBF733FF042C08D14FF0E020006955
:1043400040F004004FF0E021086107E04FF0E0206A
:10435000006920F004004FF0E021086110BD00006A
:104360007CC800080000FA050CED00E000E400E065
:1043700080E100E0FFFF0F0080FFFF1F10B501216B
:10438000080203F08DFC00214FF4807003F088FCDC
:1043900010BD2DE9F04105460C4600260027F748E0
:1043A000854205D0F648854202D0F648854200D1C4
:1043B00003E0E921F448FBF7F1FE206858B12068DA
:1043C000B0F1807F07D02068B0F1007F03D0206873
:1043D000B0F1407F00D103E0EA21EB48FBF7DEFEBD
:1043E000207910B12079012800D103E0EB21E648C3
:1043F000FBF7D4FE607910B16079012800D103E0A9
:10440000EC21E148FBF7CAFEA06858B1A068B0F102
:10441000805F07D0A068B0F1005F03D0A068B0F162
:10442000405F00D103E0ED21D748FBF7B7FEE0681D
:10443000D8B3E068B0F1807F37D0E068B0F1007F9A
:1044400033D0E068B0F1407F2FD0E068B0F1806FEA
:104450002BD0E068B0F1A06F27D0E068B0F1C06F5A
:1044600023D0E068B0F1E06F1FD0E068B0F1006FDA
:104470001BD0E068B0F1106F17D0E068B0F1206F8A
:1044800013D0E068B0F1306F0FD0E068B0F1406F4A
:104490000BD0E068B0F1506F07D0E068B0F1606F0A
:1044A00003D0E068B0F1706F00D103E0EE21B648B0
:1044B000FBF774FE206918B12069B0F5006F00D1D8
:1044C00003E0EF21B048FBF769FE207D012803DB04
:1044D000207D102800DC03E0F021AB48FBF75EFEF6
:1044E0006E68AA4806402179206840EA0120064308
:1044F0006E60AE68A6480640D4E903100843A16880
:104500000843617940EA41000643AE60EE6A26F452
:104510007006207D401EC0B2074346EA0756EE6291
:10452000BDE8F08100210160017141718160C160CD
:10453000016101210175704770B5044600252068AE
:1045400018B32068012820D0206802281DD02068D8
:1045500005281AD02068062817D02068072814D00C
:104560002068092811D0206811280ED02068122850
:104570000BD02068152808D02068162805D02068A0
:10458000172802D02068192800D104E04FF4A9713F
:104590007D48FBF703FE606858B16068B0F5803F66
:1045A00007D06068B0F5003F03D06068B0F5403FC9
:1045B00000D104E040F253117348FBF7EFFDA0680F
:1045C00058B1A068B0F5804F07D0A068B0F5004F93
:1045D00003D0A068B0F5404F00D104E04FF4AA71B9
:1045E0006948FBF7DBFDE068D8B3E068B0F5807F91
:1045F00037D0E068B0F5007F33D0E068B0F5407F99
:104600002FD0E068B0F5806F2BD0E068B0F5A06FD8
:1046100027D0E068B0F5C06F23D0E068B0F5E06F58
:104620001FD0E068B0F5006F1BD0E068B0F5106FE8
:1046300017D0E068B0F5206F13D0E068B0F5306FA8
:104640000FD0E068B0F5406F0BD0E068B0F5506F68
:1046500007D0E068B0F5606F03D0E068B0F5706F28
:1046600000D104E040F255114748FBF797FD494857
:10467000056849480540D4E900010843A16808439A
:10468000E168084305433D48C0F8045370BD00216C
:10469000016041608160C160704770B504460D469D
:1046A0003648844205D03648844202D03548844298
:1046B00000D104E040F28B113348FBF76FFD0DB1E0
:1046C000012D00D104E04FF4C6712F48FBF766FDC1
:1046D00025B1A06840F00100A06003E0A06820F0D0
:1046E0000100A06070BD70B505460C460026234849
:1046F000854205D02248854202D02248854200D119
:1047000004E04FF4E3712048FBF748FD234884425E
:104710000FD0234884420CD02248844209D0B4F5FB
:10472000000F06D0B4F5800F03D0B4F5400F00D0D1
:1047300004B904E040F2C7111348FBF72FFD6E687F
:104740001848C043064026436E6070BD70B50446ED
:104750000E4615460948844205D00948844202D0D5
:104760000848844200D104E040F2E3110648FBF718
:1047700015FDB6F5805F17DA1BE000000020014050
:104780000021014000220140C4C80008FFFEFFFCD8
:10479000FDF7FFC004230140E030FCFF0002800071
:1047A000000240000002C0004FF4F271FD48FBF728
:1047B000F5FCB5F5805F00DA04E040F2E511F94858
:1047C000FBF7ECFC6662A56270BD70B505460C4651
:1047D0000026F548854205D0F448854202D0F448C9
:1047E000854200D104E04FF40371EE48FBF7D6FC9C
:1047F0001CB3012C21D0022C1FD0032C1DD0042C63
:104800001BD0052C19D0062C17D0072C15D0082C3E
:1048100013D0092C11D00A2C0FD00B2C0DD00C2C3E
:104820000BD00D2C09D00E2C07D00F2C05D0102C3E
:1048300003D0112C01D0122C00D104E040F20D2144
:10484000D848FBF7ABFC6E6826F01F0626436E6067
:1048500070BD10B504460CB1012C00D104E04FF43A
:104860001371D048FBF79AFC3CB1D248006840F481
:104870000000CD49C1F8040306E0CE48006820F4EA
:104880000000C949C1F8040310BD10B504460CB1BD
:10489000012C00D104E040F26221C248FBF77EFC0B
:1048A0003CB1C448006840F48000BF49C1F804032B
:1048B00006E0C048006820F48000BB49C1F804034A
:1048C00010BD2DE9F04706460C46174698460025D0
:1048D000A946B548864205D0B448864202D0B448BD
:1048E000864200D104E04FF43271AE48FBF756FC2B
:1048F0001CB3012C21D0022C1FD0032C1DD0042C62
:104900001BD0052C19D0062C17D0072C15D0082C3D
:1049100013D0092C11D00A2C0FD00B2C0DD00C2C3D
:104920000BD00D2C09D00E2C07D00F2C05D0102C3D
:1049300003D0112C01D0122C00D104E040F2C92187
:104940009848FBF72BFC012F02DB102F00DC04E062
:1049500040F2CA219348FBF721FCB8F1000F14D0B4
:10496000B8F1010F11D0B8F1020F0ED0B8F1030F5A
:104970000BD0B8F1040F08D0B8F1050F05D0B8F18D
:10498000060F02D0B8F1070F00D104E040F2CB21AE
:104990008448FBF703FC092C13DDF568A4F10A0039
:1049A00000EB4001072000FA01F925EA0905A4F10E
:1049B0000A0000EB400008FA00F945EA0905F56035
:1049C0000EE0356904EB4401072000FA01F925EAFD
:1049D000090504EB440008FA00F945EA09053561C8
:1049E000072F11DA756B781E00EB80011F2000FA8B
:1049F00001F925EA0905781E00EB800004FA00F9A8
:104A000045EA0905756326E00D2F11DA356BF81FAD
:104A100000EB80011F2000FA01F925EA0905F81FC3
:104A200000EB800004FA00F945EA0905356312E05D
:104A3000F56AA7F10D0000EB80011F2000FA01F9D3
:104A400025EA0905A7F10D0000EB800004FA00F942
:104A500045EA0905F562BDE8F08710B504465248FD
:104A6000844205D05148844202D05148844200D14A
:104A700004E040F23F314B48FBF790FBA06840F068
:104A80008040A06010BD70B50446002546488442B1
:104A900005D04648844202D04548844200D104E013
:104AA00040F24E313F48FBF779FBA06800F48000EC
:104AB00008B1012500E00025284670BD70B5044608
:104AC0000D463948844205D03848844202D03848DF
:104AD000844200D104E040F26B313248FBF75EFBC8
:104AE0000DB1012D00D104E04FF45B712D48FBF7AF
:104AF00055FB25B1A06840F48060A06003E0A06889
:104B000020F48060A06070BD70B504460D46264854
:104B1000844205D02548844202D02548844200D1F1
:104B200004E04FF461711F48FBF738FB0DB1012D14
:104B300000D104E040F285311A48FBF72FFB25B184
:104B4000A06840F00200A06003E0A06820F002002E
:104B5000A06070BD2DE9F04104460D4600260027F7
:104B60001148844205D01148844202D01048844242
:104B700000D104E040F2A1310A48FBF70FFB012D00
:104B800002DB082D00DC04E040F2A2310548FBF70F
:104B900005FB666826F460466F1E46EA4736666087
:104BA000BDE8F081C4C80008002001400021014098
:104BB000002201400423014070B504460D46F94827
:104BC000844205D0F848844202D0F848844200D19B
:104BD00004E040F2BE31F648FBF7E0FA0DB1012DDA
:104BE00000D104E040F2BF31F148FBF7D7FA25B11C
:104BF000606840F40060606003E0606820F400607A
:104C0000606070BD10B50446E648844205D0E648B1
:104C1000844202D0E548844200D104E040F2D5311C
:104C2000E348FBF7BBFAE06C80B210BDE1480068D6
:104C3000704770B504460D46DA48844205D0DA481C
:104C4000844202D0D948844200D104E040F21B41A2
:104C5000D748FBF7A3FA0DB1012D00D104E040F2D3
:104C60001C41D348FBF79AFA25B1A06840F4807044
:104C7000A06003E0A06820F48070A06070BD70B5F3
:104C800004460D46C748844205D0C748844202D036
:104C9000C648844200D104E040F23341C448FBF7E7
:104CA0007DFA0DB1012D00D104E040F23441C0483D
:104CB000FBF774FA25B1A06840F40070A06003E02F
:104CC000A06820F40070A06070BD10B504460CB15F
:104CD000012C00D104E040F24E41B548FBF75EFAEA
:104CE00044B1B448001F006840F40050AD49C1F819
:104CF000040307E0AF48001F006820F40050A949F2
:104D0000C1F8040310BD2DE9F04706460C46914654
:104D10001D460027B846BA46A248864205D0A2489A
:104D2000864202D0A148864200D104E040F2A6416A
:104D30009F48FBF733FA1CB3012C21D0022C1FD063
:104D4000032C1DD0042C1BD0052C19D0062C17D0F9
:104D5000072C15D0082C13D0092C11D00A2C0FD0F9
:104D60000B2C0DD00C2C0BD00D2C09D00E2C07D0F9
:104D70000F2C05D0102C03D0112C01D0122C00D1F7
:104D800004E040F2A7418A48FBF708FAB9F1010FA5
:104D900003DBB9F1040F00DC04E04FF495618448B3
:104DA000FBF7FCF96DB1012D0BD0022D09D0032DBD
:104DB00007D0042D05D0052D03D0062D01D0072DD9
:104DC00000D104E040F2A9417948FBF7E7F9092C4A
:104DD00013DDF768A4F10A0000EB4001072000FA98
:104DE00001F827EA0807A4F10A0000EB400005FAE1
:104DF00000F847EA0807F7600EE0376904EB440162
:104E0000072000FA01F827EA080704EB440005FA36
:104E100000F847EA08073761B76BC7F3015A09F191
:104E200003000AF10101401A00EB80011F2000FA83
:104E300001F827EA080709F103000AF10101401A05
:104E400000EB800004FA00F847EA0807B763BDE802
:104E5000F0872DE9F04104460D4600260027514811
:104E6000844205D05048844202D05048844200D148
:104E700004E040F2E6414E48FBF790F9012D02DBD9
:104E8000042D00DC04E040F2E7414948FBF786F9D5
:104E9000A66B26F440166F1E46EA0756A663BDE8C9
:104EA000F081F8B505460C461646002000903D48B6
:104EB000854205D03C48854202D03C48854200D11D
:104EC00004E04FF4A1613A48FBF768F9142C05D0CF
:104ED000182C03D01C2C01D0202C00D104E040F26F
:104EE00009513348FBF75AF9B6F5805F00DA04E060
:104EF00040F20A512E48FBF751F9009500982044E2
:104F0000009000980660F8BD70B505460C46002676
:104F10002448854205D02448854202D02348854252
:104F200000D104E040F22E512148FBF737F964B379
:104F3000B4F5803F29D0B4F5003F26D0B4F5403F0A
:104F400023D0B4F5802F20D0B4F5A02F1DD0B4F518
:104F5000C02F1AD0B4F5E02F17D0B4F5002F14D01D
:104F6000B4F5102F11D0B4F5202F0ED0B4F5302F9A
:104F70000BD0B4F5402F08D0B4F5502F05D0B4F5C0
:104F8000602F02D0B4F5702F00D104E040F22F5111
:104F90000748FBF703F9AE6826F470262643AE6097
:104FA00070BD0000002001400021014000220140AE
:104FB000C4C800080823014070B504460D46002609
:104FC000E148844205D0E148844202D0E04884426E
:104FD00000D104E04FF4AA61DE48FBF7DFF845B1E9
:104FE000B5F5801F05D0B5F5001F02D0B5F5401FFF
:104FF00000D104E040F25151D648FBF7CFF8A66843
:1050000026F440162E43A66070BD10B50446CE4867
:10501000844205D0CD48844202D0CD48844200D19C
:1050200004E040F26451CB48FBF7B8F8A06840F4C4
:105030008000A06010BD70B504460025C2488442BF
:1050400005D0C248844202D0C148844200D104E065
:1050500040F27251BF48FBF7A1F8A06800F480004D
:1050600008B1012500E00025284670BD70B5044652
:105070000D46B548844205D0B448844202D0B448B5
:10508000844200D104E040F28E51B248FBF786F82A
:105090000DB1012D00D104E040F28F51AD48FBF776
:1050A0007DF825B1606840F48060606003E060686E
:1050B00020F48060606070BD70B504460D46A24863
:1050C000844205D0A148844202D0A148844200D144
:1050D00004E04FF4B5619F48FBF760F80DB1012D76
:1050E00000D104E040F2A9519A48FBF757F825B1E6
:1050F000606840F48050606003E0606820F4805095
:10510000606070BD38B505460C46002000908E48A2
:10511000854205D08D48854202D08D48854200D118
:1051200004E040F2C6518B48FBF738F8142C05D048
:10513000182C03D01C2C01D0202C00D104E040F20C
:10514000C7518448FBF72AF8009504F1280000991C
:10515000084400900098006880B238BD2DE9F04105
:1051600004460D46164600277748844205D0774806
:10517000844202D07648844200D104E040F231619A
:105180007448FBF70BF80EB1012E00D104E040F299
:1051900032617048FBF702F840F2052085420AD0E0
:1051A000B5F5837F07D040F20740854203D042F235
:1051B0001A00854200D104E040F233616548FAF7F5
:1051C000EDFFEFB2012000FA07F71EB16068384327
:1051D000606002E06068B8436060BDE8F08170B56F
:1051E00005460C4600265848854205D0574885425A
:1051F00002D05748854200D104E040F2566155483C
:10520000FAF7CCFF012C09D0022C07D0042C05D0D2
:10521000082C03D0102C01D0202C00D104E040F247
:1052200057614C48FAF7BAFF2868204008B10126B8
:1052300000E00026304670BD70B504460D46424879
:10524000844205D04148844202D04148844200D182
:1052500004E04FF4CF613F48FAF7A0FF05F0C0002B
:1052600008B905B104E040F279613A48FAF796FFCF
:10527000E843206070BD2DE9F04105460C4600264C
:105280000027B0463048854205D03048854202D0DC
:105290002F48854200D104E04FF4D2612D48FAF73F
:1052A0007DFF40F2052084420AD0B4F5837F07D009
:1052B00040F20740844203D042F21A00844200D1F7
:1052C00004E040F291612348FAF768FF271268680A
:1052D0000121A14000EA01082868384020B1B8F156
:1052E000000F01D0012600E000263046BDE8F08125
:1052F00070B505460C4600261348854205D0134874
:10530000854202D01248854200D104E040F2B761E4
:105310001048FAF743FF40F2052084420AD0B4F562
:10532000837F07D040F20740844203D042F21A0044
:10533000844200D104E04FF4D7610648FAF72EFF0B
:105340002612F043286070BD00200140002101407A
:1053500000220140C4C8000810B50446FE4884423B
:105360003AD0FD481830844236D0FB483030844271
:1053700032D0F948483084422ED0F7486030844219
:105380002AD0F5487830844226D0F34890308442C1
:1053900022D0F148A83084421ED0F04884421BD06D
:1053A000EE481830844217D0EC483030844213D095
:1053B000EA48483084420FD0E848603084420BD03D
:1053C000E6487830844207D0E4489030844203D0E5
:1053D000E248A830844200D103E0BF21E048FAF758
:1053E000DDFE206820F00100206000202060606069
:1053F000A060E060206121206061D748844204D130
:105400003D20D549103988608CE0D348183084425B
:1054100005D14FF47460D0491039886082E0CE48DD
:105420003030844205D14FF47410CB491039886074
:1054300078E0C9484830844205D14FF07460C649CD
:10544000103988606EE0C4486030844204D1C54899
:10545000C1491039C86065E0BF487830844204D142
:10546000C148BD491039C8605CE0BB4890308442F7
:1054700004D1BE48B8491039C86053E0B648A830D6
:10548000844205D14FF03D50B3491039C86049E01E
:10549000B248844204D13D20B0490839086041E057
:1054A000AE481830844205D14FF47460AB490839D6
:1054B000086037E0A9483030844205D14FF47410B9
:1054C000A649083908602DE0A4484830844205D137
:1054D0004FF07460A1490839086023E09F486030AC
:1054E000844204D19F489D49091F08601AE09B48E7
:1054F0007830844204D19C489849091F086011E023
:1055000096489030844204D198489449091F086015
:1055100008E09248A830844204D14FF03D508F49B2
:10552000091F086010BD70B505460C4600268A4864
:1055300085423AD088481830854236D08648303087
:10554000854232D08448483085422ED0824860302F
:1055500085422AD080487830854226D07E489030D7
:10556000854222D07C48A83085421ED07B488542A7
:105570001BD07A481830854217D0784830308542A1
:1055800013D07648483085420FD074486030854249
:105590000BD072487830854207D0704890308542F1
:1055A00003D06E48A830854200D104E04FF49E71CC
:1055B0006B48FAF7F3FD2068D8B12068B0F1007F9E
:1055C00017D02068B0F1806F13D02068B0F1C06FA1
:1055D0000FD02068B0F1006F0BD02068B0F1206FC1
:1055E00007D02068B0F1406F03D02068B0F1606F41
:1055F00000D104E040F23D115948FAF7CFFDE068D0
:1056000028B1E068402802D0E068802800D104E09A
:105610004FF49F715248FAF7C1FD206920B120690B
:10562000B0F5803F00D204E040F23F114C48FAF759
:10563000B5FD6069B0F5007F01D0606900B904E094
:105640004FF4A0714648FAF7A9FDA069B0F5806F44
:1056500001D0A06900B904E040F241114048FAF7D6
:105660009DFDE06938B1E069B0F5006F03D0E069F5
:10567000B0F5805F00D104E04FF4A1713848FAF72B
:105680008DFD206A38B1206AB0F5005F03D0206A32
:10569000B0F5804F00D104E040F243113048FAF7F2
:1056A0007DFD606A18B1606AB0F5807F00D104E0CA
:1056B0004FF4A2712A48FAF771FDA06A58B1A06AA6
:1056C000B0F5803F07D0A06AB0F5003F03D0A06AD4
:1056D000B0F5403F00D104E040F245112048FAF710
:1056E0005DFDE06A10B1E06A042800D104E04FF4E7
:1056F000A3711B48FAF752FD206B40B1206B0128C3
:1057000005D0206B022802D0206B032800D104E0D2
:1057100040F247111248FAF741FD606B58B1606BD7
:10572000B0F5000F07D0606BB0F1807F03D0606BE5
:10573000B0F1C07F00D104E04FF4A4710848FAF73B
:105740002DFDA06BC0B1A06BB0F5001F14D0A06BF5
:10575000B0F5800F10D00BE01060024010640240E2
:1057600018C900083D000020400F002000003D2027
:10577000A06BB0F5C00F00D104E040F24911FE4823
:10578000FAF70CFD2E68FD480640E16820680843E2
:1057900061690843A1690843E1690843216A084334
:1057A000616A0843A16A0843616B0843A16B08431F
:1057B00006432E606E6926F00706D4E90B01084304
:1057C00006436E61206968606068A860A068E86050
:1057D00070BD0021016041608160C1600161416173
:1057E0008161C161016241628162C16201634163A1
:1057F0008163704770B504460D46E14884423AD053
:10580000DF481830844236D0DD483030844232D010
:10581000DB48483084422ED0D948603084422AD0B8
:10582000D7487830844226D0D5489030844222D060
:10583000D348A83084421ED0D24884421BD0D148DD
:105840001830844217D0CF483030844213D0CD482E
:10585000483084420FD0CB48603084420BD0C948D6
:105860007830844207D0C7489030844203D0C5487E
:10587000A830844200D104E040F2D911BE48FAF7C2
:105880008DFC0DB1012D00D104E04FF4ED71BA484B
:10589000FAF784FC25B1206840F00100206003E0A5
:1058A000206820F00100206070BD70B504460D46F0
:1058B000B34884423AD0B2481830844236D0B04817
:1058C0003030844232D0AE48483084422ED0AC488A
:1058D000603084422AD0AA487830844226D0A84832
:1058E0009030844222D0A648A83084421ED0A548D9
:1058F00084421BD0A3481830844217D0A1483030CE
:10590000844213D09F48483084420FD09D48603075
:1059100084420BD09B487830844207D0994890301D
:10592000844203D09748A830844200D104E040F27A
:10593000FD119148FAF732FC15B1B5F5004F00D1D1
:1059400004E04FF4FF718C48FAF728FC25B1206879
:1059500040F40040206003E0206820F40040206014
:1059600070BD70B504460D46854884423AD08448DF
:105970001830844236D082483030844232D0804859
:10598000483084422ED07E48603084422AD07C4801
:105990007830844226D07A489030844222D07848A9
:1059A000A83084421ED0774884421BD075481830F6
:1059B000844217D073483030844213D07148483045
:1059C00084420FD06F48603084420BD06D487830ED
:1059D000844207D06B489030844203D06948A83095
:1059E000844200D104E040F221216348FAF7D6FB5B
:1059F0000DB1202D00D104E040F222215E48FAF7DB
:105A0000CDFB25B1206840F02000206003E0206835
:105A100020F02000206070BD70B504460D46584847
:105A200084423AD056481830844236D054483030F8
:105A3000844232D05248483084422ED050486030A0
:105A400084422AD04E487830844226D04C48903048
:105A5000844222D04A48A83084421ED04948844219
:105A60001BD048481830844217D046483030844212
:105A700013D04448483084420FD0424860308442BA
:105A80000BD040487830844207D03E489030844262
:105A900003D03C48A830844200D104E040F2752194
:105AA0003548FAF77BFB656070BD10B50446344895
:105AB00084423AD032481830844236D030483030B0
:105AC000844232D02E48483084422ED02C48603058
:105AD00084422AD02A487830844226D02848903000
